{
  "contractName": "Borrower",
  "abi": [
    {
      "inputs": [
        {
          "internalType": "address",
          "name": "_lender",
          "type": "address"
        },
        {
          "internalType": "address",
          "name": "_dealerA",
          "type": "address"
        },
        {
          "internalType": "address",
          "name": "_dealerB",
          "type": "address"
        }
      ],
      "stateMutability": "nonpayable",
      "type": "constructor"
    },
    {
      "anonymous": false,
      "inputs": [
        {
          "indexed": true,
          "internalType": "address",
          "name": "previousOwner",
          "type": "address"
        },
        {
          "indexed": true,
          "internalType": "address",
          "name": "newOwner",
          "type": "address"
        }
      ],
      "name": "OwnershipTransferred",
      "type": "event"
    },
    {
      "inputs": [],
      "name": "owner",
      "outputs": [
        {
          "internalType": "address",
          "name": "",
          "type": "address"
        }
      ],
      "stateMutability": "view",
      "type": "function",
      "constant": true
    },
    {
      "inputs": [],
      "name": "renounceOwnership",
      "outputs": [],
      "stateMutability": "nonpayable",
      "type": "function"
    },
    {
      "inputs": [
        {
          "internalType": "address",
          "name": "newOwner",
          "type": "address"
        }
      ],
      "name": "transferOwnership",
      "outputs": [],
      "stateMutability": "nonpayable",
      "type": "function"
    },
    {
      "inputs": [
        {
          "internalType": "address",
          "name": "tokenAddress",
          "type": "address"
        },
        {
          "internalType": "uint256",
          "name": "_amount",
          "type": "uint256"
        }
      ],
      "name": "repay",
      "outputs": [],
      "stateMutability": "nonpayable",
      "type": "function"
    },
    {
      "inputs": [],
      "name": "executeOperation",
      "outputs": [],
      "stateMutability": "nonpayable",
      "type": "function"
    },
    {
      "inputs": [
        {
          "internalType": "uint256",
          "name": "_amount",
          "type": "uint256"
        }
      ],
      "name": "executeFlashLoan",
      "outputs": [],
      "stateMutability": "nonpayable",
      "type": "function"
    }
  ],
  "bytecode": "0x60e06040523480156200001157600080fd5b50604051620011a0380380620011a0833981810160405281019062000037919062000232565b620000576200004b620000fc60201b60201c565b6200010460201b60201c565b8273ffffffffffffffffffffffffffffffffffffffff1660808173ffffffffffffffffffffffffffffffffffffffff16815250508173ffffffffffffffffffffffffffffffffffffffff1660a08173ffffffffffffffffffffffffffffffffffffffff16815250508073ffffffffffffffffffffffffffffffffffffffff1660c08173ffffffffffffffffffffffffffffffffffffffff16815250505050506200028e565b600033905090565b60008060009054906101000a900473ffffffffffffffffffffffffffffffffffffffff169050816000806101000a81548173ffffffffffffffffffffffffffffffffffffffff021916908373ffffffffffffffffffffffffffffffffffffffff1602179055508173ffffffffffffffffffffffffffffffffffffffff168173ffffffffffffffffffffffffffffffffffffffff167f8be0079c531659141344cd1fd0a4f28419497f9722a3daafe3b4186f6b6457e060405160405180910390a35050565b600080fd5b600073ffffffffffffffffffffffffffffffffffffffff82169050919050565b6000620001fa82620001cd565b9050919050565b6200020c81620001ed565b81146200021857600080fd5b50565b6000815190506200022c8162000201565b92915050565b6000806000606084860312156200024e576200024d620001c8565b5b60006200025e868287016200021b565b935050602062000271868287016200021b565b925050604062000284868287016200021b565b9150509250925092565b60805160a05160c051610eb9620002e7600039600061016f0152600060ef0152600081816101f10152818161029b0152818161058601528181610631015281816106be0152818161081801526108c20152610eb96000f3fe608060405234801561001057600080fd5b50600436106100625760003560e01c80631706c38b1461006757806322867d7814610071578063715018a61461008d5780638da5cb5b14610097578063f2fde38b146100b5578063fb056f68146100d1575b600080fd5b61006f6100ed565b005b61008b600480360381019061008691906109fe565b6101ef565b005b61009561035e565b005b61009f6103e6565b6040516100ac9190610a4d565b60405180910390f35b6100cf60048036038101906100ca9190610a68565b61040f565b005b6100eb60048036038101906100e69190610a95565b610506565b005b7f000000000000000000000000000000000000000000000000000000000000000073ffffffffffffffffffffffffffffffffffffffff16637826c0b56040518163ffffffff1660e01b8152600401600060405180830381600087803b15801561015557600080fd5b505af1158015610169573d6000803e3d6000fd5b505050507f000000000000000000000000000000000000000000000000000000000000000073ffffffffffffffffffffffffffffffffffffffff166397691f146040518163ffffffff1660e01b8152600401600060405180830381600087803b1580156101d557600080fd5b505af11580156101e9573d6000803e3d6000fd5b50505050565b7f000000000000000000000000000000000000000000000000000000000000000073ffffffffffffffffffffffffffffffffffffffff163373ffffffffffffffffffffffffffffffffffffffff161461027d576040517f08c379a000000000000000000000000000000000000000000000000000000000815260040161027490610b45565b60405180910390fd5b8173ffffffffffffffffffffffffffffffffffffffff1663a9059cbb7f0000000000000000000000000000000000000000000000000000000000000000836040518363ffffffff1660e01b81526004016102d8929190610b74565b6020604051808303816000875af11580156102f7573d6000803e3d6000fd5b505050506040513d601f19601f8201168201806040525081019061031b9190610bd5565b61035a576040517f08c379a000000000000000000000000000000000000000000000000000000000815260040161035190610c74565b60405180910390fd5b5050565b61036661074a565b73ffffffffffffffffffffffffffffffffffffffff166103846103e6565b73ffffffffffffffffffffffffffffffffffffffff16146103da576040517f08c379a00000000000000000000000000000000000000000000000000000000081526004016103d190610ce0565b60405180910390fd5b6103e46000610752565b565b60008060009054906101000a900473ffffffffffffffffffffffffffffffffffffffff16905090565b61041761074a565b73ffffffffffffffffffffffffffffffffffffffff166104356103e6565b73ffffffffffffffffffffffffffffffffffffffff161461048b576040517f08c379a000000000000000000000000000000000000000000000000000000000815260040161048290610ce0565b60405180910390fd5b600073ffffffffffffffffffffffffffffffffffffffff168173ffffffffffffffffffffffffffffffffffffffff16036104fa576040517f08c379a00000000000000000000000000000000000000000000000000000000081526004016104f190610d72565b60405180910390fd5b61050381610752565b50565b61050e61074a565b73ffffffffffffffffffffffffffffffffffffffff1661052c6103e6565b73ffffffffffffffffffffffffffffffffffffffff1614610582576040517f08c379a000000000000000000000000000000000000000000000000000000000815260040161057990610ce0565b60405180910390fd5b60007f000000000000000000000000000000000000000000000000000000000000000073ffffffffffffffffffffffffffffffffffffffff1663fc0c546a6040518163ffffffff1660e01b8152600401602060405180830381865afa1580156105ef573d6000803e3d6000fd5b505050506040513d601f19601f820116820180604052508101906106139190610dd0565b73ffffffffffffffffffffffffffffffffffffffff1663dd62ed3e307f00000000000000000000000000000000000000000000000000000000000000006040518363ffffffff1660e01b815260040161066d929190610dfd565b602060405180830381865afa15801561068a573d6000803e3d6000fd5b505050506040513d601f19601f820116820180604052508101906106ae9190610e3b565b036106bc576106bb610816565b5b7f000000000000000000000000000000000000000000000000000000000000000073ffffffffffffffffffffffffffffffffffffffff16639ab603b9826040518263ffffffff1660e01b81526004016107159190610e68565b600060405180830381600087803b15801561072f57600080fd5b505af1158015610743573d6000803e3d6000fd5b5050505050565b600033905090565b60008060009054906101000a900473ffffffffffffffffffffffffffffffffffffffff169050816000806101000a81548173ffffffffffffffffffffffffffffffffffffffff021916908373ffffffffffffffffffffffffffffffffffffffff1602179055508173ffffffffffffffffffffffffffffffffffffffff168173ffffffffffffffffffffffffffffffffffffffff167f8be0079c531659141344cd1fd0a4f28419497f9722a3daafe3b4186f6b6457e060405160405180910390a35050565b7f000000000000000000000000000000000000000000000000000000000000000073ffffffffffffffffffffffffffffffffffffffff1663fc0c546a6040518163ffffffff1660e01b8152600401602060405180830381865afa158015610881573d6000803e3d6000fd5b505050506040513d601f19601f820116820180604052508101906108a59190610dd0565b73ffffffffffffffffffffffffffffffffffffffff1663095ea7b37f00000000000000000000000000000000000000000000000000000000000000007fffffffffffffffffffffffffffffffffffffffffffffffffffffffffffffffff6040518363ffffffff1660e01b815260040161091f929190610b74565b6020604051808303816000875af115801561093e573d6000803e3d6000fd5b505050506040513d601f19601f820116820180604052508101906109629190610bd5565b50565b600080fd5b600073ffffffffffffffffffffffffffffffffffffffff82169050919050565b60006109958261096a565b9050919050565b6109a58161098a565b81146109b057600080fd5b50565b6000813590506109c28161099c565b92915050565b6000819050919050565b6109db816109c8565b81146109e657600080fd5b50565b6000813590506109f8816109d2565b92915050565b60008060408385031215610a1557610a14610965565b5b6000610a23858286016109b3565b9250506020610a34858286016109e9565b9150509250929050565b610a478161098a565b82525050565b6000602082019050610a626000830184610a3e565b92915050565b600060208284031215610a7e57610a7d610965565b5b6000610a8c848285016109b3565b91505092915050565b600060208284031215610aab57610aaa610965565b5b6000610ab9848285016109e9565b91505092915050565b600082825260208201905092915050565b7f4f6e6c79206c656e6465722063616e2063616c6c2072657061792066756e637460008201527f696f6e0000000000000000000000000000000000000000000000000000000000602082015250565b6000610b2f602383610ac2565b9150610b3a82610ad3565b604082019050919050565b60006020820190508181036000830152610b5e81610b22565b9050919050565b610b6e816109c8565b82525050565b6000604082019050610b896000830185610a3e565b610b966020830184610b65565b9392505050565b60008115159050919050565b610bb281610b9d565b8114610bbd57600080fd5b50565b600081519050610bcf81610ba9565b92915050565b600060208284031215610beb57610bea610965565b5b6000610bf984828501610bc0565b91505092915050565b7f426f72726f7765723a20636f756c64206e6f74207472616e7366657220746f6b60008201527f656e730000000000000000000000000000000000000000000000000000000000602082015250565b6000610c5e602383610ac2565b9150610c6982610c02565b604082019050919050565b60006020820190508181036000830152610c8d81610c51565b9050919050565b7f4f776e61626c653a2063616c6c6572206973206e6f7420746865206f776e6572600082015250565b6000610cca602083610ac2565b9150610cd582610c94565b602082019050919050565b60006020820190508181036000830152610cf981610cbd565b9050919050565b7f4f776e61626c653a206e6577206f776e657220697320746865207a65726f206160008201527f6464726573730000000000000000000000000000000000000000000000000000602082015250565b6000610d5c602683610ac2565b9150610d6782610d00565b604082019050919050565b60006020820190508181036000830152610d8b81610d4f565b9050919050565b6000610d9d8261098a565b9050919050565b610dad81610d92565b8114610db857600080fd5b50565b600081519050610dca81610da4565b92915050565b600060208284031215610de657610de5610965565b5b6000610df484828501610dbb565b91505092915050565b6000604082019050610e126000830185610a3e565b610e1f6020830184610a3e565b9392505050565b600081519050610e35816109d2565b92915050565b600060208284031215610e5157610e50610965565b5b6000610e5f84828501610e26565b91505092915050565b6000602082019050610e7d6000830184610b65565b9291505056fea2646970667358221220d2d14c4bd8a33a3dd58b6495b695409bc6075dd6f38e475053b74bf353b6b36464736f6c634300080d0033",
  "immutableReferences": {
    "871": [
      {
        "length": 32,
        "start": 497
      },
      {
        "length": 32,
        "start": 667
      },
      {
        "length": 32,
        "start": 1414
      },
      {
        "length": 32,
        "start": 1585
      },
      {
        "length": 32,
        "start": 1726
      },
      {
        "length": 32,
        "start": 2072
      },
      {
        "length": 32,
        "start": 2242
      }
    ],
    "874": [
      {
        "length": 32,
        "start": 239
      }
    ],
    "877": [
      {
        "length": 32,
        "start": 367
      }
    ]
  },
  "source": "// SPDX-License-Identifier: MIT\npragma solidity >=0.4.22 <0.9.0;\n\nimport \"./Lender.sol\";\nimport \"@openzeppelin/contracts/access/Ownable.sol\";\nimport \"@openzeppelin/contracts/token/ERC20/IERC20.sol\";\nimport \"./MarketA.sol\";\nimport \"./MarketB.sol\";\n\ncontract Borrower is IBorrower, Ownable {\n    Lender private immutable lender;\n    DealerA private immutable dealerA;\n    DealerB private immutable dealerB;\n\n    constructor(\n        address _lender,\n        address _dealerA,\n        address _dealerB\n    ) public {\n        lender = Lender(_lender);\n        dealerA = DealerA(_dealerA);\n        dealerB = DealerB(_dealerB);\n    }\n\n    function allowTokenTransfer() internal {\n        lender.token().approve(address(lender), type(uint256).max);\n    }\n\n    function repay(address tokenAddress, uint256 _amount) external {\n        require(\n            msg.sender == address(lender),\n            \"Only lender can call repay function\"\n        );\n        require(\n            IERC20(tokenAddress).transfer(address(lender), _amount),\n            \"Borrower: could not transfer tokens\"\n        );\n    }\n\n    function executeOperation() public {\n        dealerA.buyCar();\n        dealerB.sellCar();\n    }\n\n    // Execute flashLoan\n    function executeFlashLoan(uint256 _amount) external onlyOwner {\n        if (lender.token().allowance(address(this), address(lender)) == 0) {\n            allowTokenTransfer();\n        }\n        lender.flashLoan(_amount);\n    }\n}\n",
  "sourcePath": "C:\\Users\\Maxtho\\simple-flashloan\\contracts\\Borrower.sol",
  "compiler": {
    "name": "solc",
    "version": "0.8.13+commit.abaa5c0e.Emscripten.clang"
  },
  "schemaVersion": "3.4.7",
  "updatedAt": "2022-04-14T09:22:07.234Z",
  "networkType": "ethereum",
  "devdoc": {
    "kind": "dev",
    "methods": {
      "owner()": {
        "details": "Returns the address of the current owner."
      },
      "renounceOwnership()": {
        "details": "Leaves the contract without owner. It will not be possible to call `onlyOwner` functions anymore. Can only be called by the current owner. NOTE: Renouncing ownership will leave the contract without an owner, thereby removing any functionality that is only available to the owner."
      },
      "transferOwnership(address)": {
        "details": "Transfers ownership of the contract to a new account (`newOwner`). Can only be called by the current owner."
      }
    },
    "version": 1
  },
  "userdoc": {
    "kind": "user",
    "methods": {},
    "version": 1
  }
}