{
  "contractName": "DealerB",
  "abi": [
    {
      "inputs": [
        {
          "internalType": "contract IERC20",
          "name": "_cars",
          "type": "address"
        },
        {
          "internalType": "contract IERC20",
          "name": "_dollar",
          "type": "address"
        }
      ],
      "stateMutability": "nonpayable",
      "type": "constructor"
    },
    {
      "inputs": [],
      "name": "cars",
      "outputs": [
        {
          "internalType": "contract IERC20",
          "name": "",
          "type": "address"
        }
      ],
      "stateMutability": "view",
      "type": "function",
      "constant": true
    },
    {
      "inputs": [],
      "name": "dollar",
      "outputs": [
        {
          "internalType": "contract IERC20",
          "name": "",
          "type": "address"
        }
      ],
      "stateMutability": "view",
      "type": "function",
      "constant": true
    },
    {
      "inputs": [],
      "name": "buyCar",
      "outputs": [],
      "stateMutability": "nonpayable",
      "type": "function"
    },
    {
      "inputs": [],
      "name": "sellCar",
      "outputs": [],
      "stateMutability": "nonpayable",
      "type": "function"
    }
  ],
  "bytecode": "0x608060405234801561001057600080fd5b506040516109a33803806109a38339818101604052810190610032919061012f565b816000806101000a81548173ffffffffffffffffffffffffffffffffffffffff021916908373ffffffffffffffffffffffffffffffffffffffff16021790555080600160006101000a81548173ffffffffffffffffffffffffffffffffffffffff021916908373ffffffffffffffffffffffffffffffffffffffff160217905550505061016f565b600080fd5b600073ffffffffffffffffffffffffffffffffffffffff82169050919050565b60006100ea826100bf565b9050919050565b60006100fc826100df565b9050919050565b61010c816100f1565b811461011757600080fd5b50565b60008151905061012981610103565b92915050565b60008060408385031215610146576101456100ba565b5b60006101548582860161011a565b92505060206101658582860161011a565b9150509250929050565b6108258061017e6000396000f3fe608060405234801561001057600080fd5b506004361061004c5760003560e01c806351adeb57146100515780637826c0b51461006f57806397691f14146100795780639a7ffc5714610083575b600080fd5b6100596100a1565b60405161006691906104dd565b60405180910390f35b6100776100c7565b005b61008161020e565b005b61008b61043a565b60405161009891906104dd565b60405180910390f35b600160009054906101000a900473ffffffffffffffffffffffffffffffffffffffff1681565b600160009054906101000a900473ffffffffffffffffffffffffffffffffffffffff1673ffffffffffffffffffffffffffffffffffffffff166323b872dd3330612af86040518463ffffffff1660e01b81526004016101289392919061055e565b6020604051808303816000875af1158015610147573d6000803e3d6000fd5b505050506040513d601f19601f8201168201806040525081019061016b91906105d2565b5060008054906101000a900473ffffffffffffffffffffffffffffffffffffffff1673ffffffffffffffffffffffffffffffffffffffff1663a9059cbb3360016040518363ffffffff1660e01b81526004016101c892919061063a565b6020604051808303816000875af11580156101e7573d6000803e3d6000fd5b505050506040513d601f19601f8201168201806040525081019061020b91906105d2565b50565b600160008054906101000a900473ffffffffffffffffffffffffffffffffffffffff1673ffffffffffffffffffffffffffffffffffffffff166370a08231336040518263ffffffff1660e01b81526004016102699190610663565b602060405180830381865afa158015610286573d6000803e3d6000fd5b505050506040513d601f19601f820116820180604052508101906102aa91906106aa565b10156102eb576040517f08c379a00000000000000000000000000000000000000000000000000000000081526004016102e290610734565b60405180910390fd5b60008054906101000a900473ffffffffffffffffffffffffffffffffffffffff1673ffffffffffffffffffffffffffffffffffffffff166323b872dd333060016040518463ffffffff1660e01b815260040161034993929190610754565b6020604051808303816000875af1158015610368573d6000803e3d6000fd5b505050506040513d601f19601f8201168201806040525081019061038c91906105d2565b50600160009054906101000a900473ffffffffffffffffffffffffffffffffffffffff1673ffffffffffffffffffffffffffffffffffffffff1663a9059cbb336902544faa778090e000006040518363ffffffff1660e01b81526004016103f49291906107c6565b6020604051808303816000875af1158015610413573d6000803e3d6000fd5b505050506040513d601f19601f8201168201806040525081019061043791906105d2565b50565b60008054906101000a900473ffffffffffffffffffffffffffffffffffffffff1681565b600073ffffffffffffffffffffffffffffffffffffffff82169050919050565b6000819050919050565b60006104a361049e6104998461045e565b61047e565b61045e565b9050919050565b60006104b582610488565b9050919050565b60006104c7826104aa565b9050919050565b6104d7816104bc565b82525050565b60006020820190506104f260008301846104ce565b92915050565b60006105038261045e565b9050919050565b610513816104f8565b82525050565b6000819050919050565b6000819050919050565b600061054861054361053e84610519565b61047e565b610523565b9050919050565b6105588161052d565b82525050565b6000606082019050610573600083018661050a565b610580602083018561050a565b61058d604083018461054f565b949350505050565b600080fd5b60008115159050919050565b6105af8161059a565b81146105ba57600080fd5b50565b6000815190506105cc816105a6565b92915050565b6000602082840312156105e8576105e7610595565b5b60006105f6848285016105bd565b91505092915050565b6000819050919050565b600061062461061f61061a846105ff565b61047e565b610523565b9050919050565b61063481610609565b82525050565b600060408201905061064f600083018561050a565b61065c602083018461062b565b9392505050565b6000602082019050610678600083018461050a565b92915050565b61068781610523565b811461069257600080fd5b50565b6000815190506106a48161067e565b92915050565b6000602082840312156106c0576106bf610595565b5b60006106ce84828501610695565b91505092915050565b600082825260208201905092915050565b7f596f7520646f6e2774206861766520616e792063617220746f2073656c6c0000600082015250565b600061071e601e836106d7565b9150610729826106e8565b602082019050919050565b6000602082019050818103600083015261074d81610711565b9050919050565b6000606082019050610769600083018661050a565b610776602083018561050a565b610783604083018461062b565b949350505050565b6000819050919050565b60006107b06107ab6107a68461078b565b61047e565b610523565b9050919050565b6107c081610795565b82525050565b60006040820190506107db600083018561050a565b6107e860208301846107b7565b939250505056fea26469706673582212207ba5dfe6106257b9469742c2807030614a2f80ae264da8d2e4425615dba14d4d64736f6c634300080d0033",
  "immutableReferences": {},
  "source": "// SPDX-License-Identifier: MIT\npragma solidity >=0.4.22 <0.9.0;\n\nimport \"@openzeppelin/contracts/token/ERC20/IERC20.sol\";\n\ncontract DealerB {\n    // The token that represent cars\n    IERC20 public cars;\n    IERC20 public dollar;\n\n    constructor(IERC20 _cars, IERC20 _dollar) {\n        cars = _cars;\n        dollar = _dollar;\n    }\n\n    function buyCar() public {\n        //Check that the price is good\n        dollar.transferFrom(msg.sender, address(this), 11000);\n        cars.transfer(msg.sender, 1);\n    }\n\n    function sellCar() public {\n        //Check that the price is good\n        require(\n            cars.balanceOf(address(msg.sender)) >= 1,\n            \"You don't have any car to sell\"\n        );\n        cars.transferFrom(msg.sender, address(this), 1);\n        dollar.transfer(msg.sender, 11000 ether);\n    }\n}\n",
  "sourcePath": "C:\\Users\\Maxtho\\simple-flashloan\\contracts\\MarketB.sol",
  "compiler": {
    "name": "solc",
    "version": "0.8.13+commit.abaa5c0e.Emscripten.clang"
  },
  "schemaVersion": "3.4.7",
  "updatedAt": "2022-04-14T09:22:07.228Z",
  "networkType": "ethereum",
  "devdoc": {
    "kind": "dev",
    "methods": {},
    "version": 1
  },
  "userdoc": {
    "kind": "user",
    "methods": {},
    "version": 1
  }
}