{
  "contractName": "Lender",
  "abi": [
    {
      "inputs": [
        {
          "internalType": "address",
          "name": "tokenAddress",
          "type": "address"
        }
      ],
      "stateMutability": "nonpayable",
      "type": "constructor"
    },
    {
      "anonymous": false,
      "inputs": [
        {
          "indexed": false,
          "internalType": "address",
          "name": "user",
          "type": "address"
        }
      ],
      "name": "LenderCreated",
      "type": "event"
    },
    {
      "inputs": [],
      "name": "token",
      "outputs": [
        {
          "internalType": "contract IERC20",
          "name": "",
          "type": "address"
        }
      ],
      "stateMutability": "view",
      "type": "function",
      "constant": true
    },
    {
      "inputs": [
        {
          "internalType": "uint256",
          "name": "amount",
          "type": "uint256"
        }
      ],
      "name": "flashLoan",
      "outputs": [],
      "stateMutability": "nonpayable",
      "type": "function"
    }
  ],
  "bytecode": "0x60a060405234801561001057600080fd5b50604051610916380380610916833981810160405281019061003291906100cf565b8073ffffffffffffffffffffffffffffffffffffffff1660808173ffffffffffffffffffffffffffffffffffffffff1681525050506100fc565b600080fd5b600073ffffffffffffffffffffffffffffffffffffffff82169050919050565b600061009c82610071565b9050919050565b6100ac81610091565b81146100b757600080fd5b50565b6000815190506100c9816100a3565b92915050565b6000602082840312156100e5576100e461006c565b5b60006100f3848285016100ba565b91505092915050565b6080516107e46101326000396000818160bc0152818161018f015281816102ac0152818161031e01526103fc01526107e46000f3fe608060405234801561001057600080fd5b50600436106100365760003560e01c80639ab603b91461003b578063fc0c546a14610057575b600080fd5b61005560048036038101906100509190610459565b610075565b005b61005f6103fa565b60405161006c9190610505565b60405180910390f35b600081116100b8576040517f08c379a00000000000000000000000000000000000000000000000000000000081526004016100af906105a3565b60405180910390fd5b60007f000000000000000000000000000000000000000000000000000000000000000073ffffffffffffffffffffffffffffffffffffffff166370a08231306040518263ffffffff1660e01b815260040161011391906105e4565b602060405180830381865afa158015610130573d6000803e3d6000fd5b505050506040513d601f19601f820116820180604052508101906101549190610614565b90507f9b63d0bb8bfdbdf0c706230c388745d688dda48f25e6d18457a2a83333dc6f003360405161018591906105e4565b60405180910390a17f000000000000000000000000000000000000000000000000000000000000000073ffffffffffffffffffffffffffffffffffffffff1663a9059cbb336127106040518363ffffffff1660e01b81526004016101ea92919061067c565b6020604051808303816000875af1158015610209573d6000803e3d6000fd5b505050506040513d601f19601f8201168201806040525081019061022d91906106dd565b503373ffffffffffffffffffffffffffffffffffffffff16631706c38b6040518163ffffffff1660e01b8152600401600060405180830381600087803b15801561027657600080fd5b505af115801561028a573d6000803e3d6000fd5b505050503373ffffffffffffffffffffffffffffffffffffffff166322867d787f0000000000000000000000000000000000000000000000000000000000000000846040518363ffffffff1660e01b81526004016102e9929190610719565b600060405180830381600087803b15801561030357600080fd5b505af1158015610317573d6000803e3d6000fd5b50505050807f000000000000000000000000000000000000000000000000000000000000000073ffffffffffffffffffffffffffffffffffffffff166370a08231306040518263ffffffff1660e01b815260040161037591906105e4565b602060405180830381865afa158015610392573d6000803e3d6000fd5b505050506040513d601f19601f820116820180604052508101906103b69190610614565b146103f6576040517f08c379a00000000000000000000000000000000000000000000000000000000081526004016103ed9061078e565b60405180910390fd5b5050565b7f000000000000000000000000000000000000000000000000000000000000000081565b600080fd5b6000819050919050565b61043681610423565b811461044157600080fd5b50565b6000813590506104538161042d565b92915050565b60006020828403121561046f5761046e61041e565b5b600061047d84828501610444565b91505092915050565b600073ffffffffffffffffffffffffffffffffffffffff82169050919050565b6000819050919050565b60006104cb6104c66104c184610486565b6104a6565b610486565b9050919050565b60006104dd826104b0565b9050919050565b60006104ef826104d2565b9050919050565b6104ff816104e4565b82525050565b600060208201905061051a60008301846104f6565b92915050565b600082825260208201905092915050565b7f4c656e6465723a20616d6f756e74206d7573742062652067726561746572207460008201527f68616e207a65726f000000000000000000000000000000000000000000000000602082015250565b600061058d602883610520565b915061059882610531565b604082019050919050565b600060208201905081810360008301526105bc81610580565b9050919050565b60006105ce82610486565b9050919050565b6105de816105c3565b82525050565b60006020820190506105f960008301846105d5565b92915050565b60008151905061060e8161042d565b92915050565b60006020828403121561062a5761062961041e565b5b6000610638848285016105ff565b91505092915050565b6000819050919050565b600061066661066161065c84610641565b6104a6565b610423565b9050919050565b6106768161064b565b82525050565b600060408201905061069160008301856105d5565b61069e602083018461066d565b9392505050565b60008115159050919050565b6106ba816106a5565b81146106c557600080fd5b50565b6000815190506106d7816106b1565b92915050565b6000602082840312156106f3576106f261041e565b5b6000610701848285016106c8565b91505092915050565b61071381610423565b82525050565b600060408201905061072e60008301856105d5565b61073b602083018461070a565b9392505050565b7f4c656e6465723a20626f72726f77657220646964206e6f742072657061790000600082015250565b6000610778601e83610520565b915061078382610742565b602082019050919050565b600060208201905081810360008301526107a78161076b565b905091905056fea264697066735822122028aa82638941f19b458992932c5aac9d99f4ac1825c44d9561012aade779037b64736f6c634300080d0033",
  "immutableReferences": {
    "1065": [
      {
        "length": 32,
        "start": 188
      },
      {
        "length": 32,
        "start": 399
      },
      {
        "length": 32,
        "start": 684
      },
      {
        "length": 32,
        "start": 798
      },
      {
        "length": 32,
        "start": 1020
      }
    ]
  },
  "source": "// SPDX-License-Identifier: MIT\npragma solidity >=0.4.22 <0.9.0;\n\nimport \"@openzeppelin/contracts/token/ERC20/IERC20.sol\";\nimport \"@openzeppelin/contracts/security/ReentrancyGuard.sol\";\n\ninterface IBorrower {\n    function repay(address tokenAddress, uint256 _amount) external;\n\n    function executeOperation() external;\n}\n\ncontract Lender {\n    // The token that is being lent\n    IERC20 public immutable token;\n\n    event LenderCreated(address user);\n\n    constructor(address tokenAddress) {\n        // Initialize the token\n        token = IERC20(tokenAddress);\n    }\n\n    function flashLoan(uint256 amount) external {\n        // Check that the amount is not zero\n        require(amount > 0, \"Lender: amount must be greater than zero\");\n\n        uint256 balanceBeforeLoan = token.balanceOf(address(this));\n        emit LenderCreated(msg.sender);\n        // Transfer the amount to the borrower\n        token.transfer(msg.sender, 10000);\n\n        // Call borrower operations to execute\n        IBorrower(msg.sender).executeOperation();\n\n        // The lender calls the smart contract function of the receiver to recover the funds\n        IBorrower(msg.sender).repay(address(token), amount);\n        require(\n            token.balanceOf(address(this)) == balanceBeforeLoan,\n            \"Lender: borrower did not repay\"\n        );\n    }\n}\n",
  "sourcePath": "C:\\Users\\Maxtho\\simple-flashloan\\contracts\\Lender.sol",
  "compiler": {
    "name": "solc",
    "version": "0.8.13+commit.abaa5c0e.Emscripten.clang"
  },
  "schemaVersion": "3.4.7",
  "updatedAt": "2022-04-14T09:22:07.216Z",
  "networkType": "ethereum",
  "devdoc": {
    "kind": "dev",
    "methods": {},
    "version": 1
  },
  "userdoc": {
    "kind": "user",
    "methods": {},
    "version": 1
  }
}